{"abi":[{"type":"constructor","inputs":[{"name":"_usdc","type":"address","internalType":"address"},{"name":"_vault","type":"address","internalType":"address"},{"name":"_feeRecipient","type":"address","internalType":"address"},{"name":"_feeBps","type":"uint256","internalType":"uint256"}],"stateMutability":"nonpayable"},{"type":"function","name":"MAX_FEE_BPS","inputs":[],"outputs":[{"name":"","type":"uint256","internalType":"uint256"}],"stateMutability":"view"},{"type":"function","name":"feeRecipient","inputs":[],"outputs":[{"name":"","type":"address","internalType":"address"}],"stateMutability":"view"},{"type":"function","name":"owner","inputs":[],"outputs":[{"name":"","type":"address","internalType":"address"}],"stateMutability":"view"},{"type":"function","name":"pay","inputs":[{"name":"paymentId","type":"bytes32","internalType":"bytes32"},{"name":"creator","type":"address","internalType":"address"},{"name":"amount","type":"uint256","internalType":"uint256"},{"name":"paymentType","type":"uint8","internalType":"enum ArcPaymentRouter.PaymentType"}],"outputs":[],"stateMutability":"nonpayable"},{"type":"function","name":"platformFeeBps","inputs":[],"outputs":[{"name":"","type":"uint256","internalType":"uint256"}],"stateMutability":"view"},{"type":"function","name":"processedPayments","inputs":[{"name":"","type":"bytes32","internalType":"bytes32"}],"outputs":[{"name":"","type":"bool","internalType":"bool"}],"stateMutability":"view"},{"type":"function","name":"renounceOwnership","inputs":[],"outputs":[],"stateMutability":"nonpayable"},{"type":"function","name":"setFeeBps","inputs":[{"name":"newBps","type":"uint256","internalType":"uint256"}],"outputs":[],"stateMutability":"nonpayable"},{"type":"function","name":"setFeeRecipient","inputs":[{"name":"newRecipient","type":"address","internalType":"address"}],"outputs":[],"stateMutability":"nonpayable"},{"type":"function","name":"transferOwnership","inputs":[{"name":"newOwner","type":"address","internalType":"address"}],"outputs":[],"stateMutability":"nonpayable"},{"type":"function","name":"usdc","inputs":[],"outputs":[{"name":"","type":"address","internalType":"contract IERC20"}],"stateMutability":"view"},{"type":"function","name":"vault","inputs":[],"outputs":[{"name":"","type":"address","internalType":"contract ITreasuryVault"}],"stateMutability":"view"},{"type":"event","name":"FeeRecipientUpdated","inputs":[{"name":"oldRecipient","type":"address","indexed":true,"internalType":"address"},{"name":"newRecipient","type":"address","indexed":true,"internalType":"address"}],"anonymous":false},{"type":"event","name":"FeeUpdated","inputs":[{"name":"oldBps","type":"uint256","indexed":false,"internalType":"uint256"},{"name":"newBps","type":"uint256","indexed":false,"internalType":"uint256"}],"anonymous":false},{"type":"event","name":"OwnershipTransferred","inputs":[{"name":"previousOwner","type":"address","indexed":true,"internalType":"address"},{"name":"newOwner","type":"address","indexed":true,"internalType":"address"}],"anonymous":false},{"type":"event","name":"PaymentReceived","inputs":[{"name":"paymentId","type":"bytes32","indexed":true,"internalType":"bytes32"},{"name":"from","type":"address","indexed":true,"internalType":"address"},{"name":"creator","type":"address","indexed":true,"internalType":"address"},{"name":"grossAmount","type":"uint256","indexed":false,"internalType":"uint256"},{"name":"platformFee","type":"uint256","indexed":false,"internalType":"uint256"},{"name":"netAmount","type":"uint256","indexed":false,"internalType":"uint256"},{"name":"paymentType","type":"uint8","indexed":false,"internalType":"enum ArcPaymentRouter.PaymentType"}],"anonymous":false},{"type":"error","name":"AlreadyProcessed","inputs":[{"name":"paymentId","type":"bytes32","internalType":"bytes32"}]},{"type":"error","name":"FeeTooHigh","inputs":[{"name":"requested","type":"uint256","internalType":"uint256"},{"name":"max","type":"uint256","internalType":"uint256"}]},{"type":"error","name":"OwnableInvalidOwner","inputs":[{"name":"owner","type":"address","internalType":"address"}]},{"type":"error","name":"OwnableUnauthorizedAccount","inputs":[{"name":"account","type":"address","internalType":"address"}]},{"type":"error","name":"ReentrancyGuardReentrantCall","inputs":[]},{"type":"error","name":"SafeERC20FailedOperation","inputs":[{"name":"token","type":"address","internalType":"address"}]},{"type":"error","name":"ZeroAddress","inputs":[]},{"type":"error","name":"ZeroAmount","inputs":[]}],"bytecode":{"object":"0x60c060405234801561000f575f5ffd5b506040516117f23803806117f28339818101604052810190610031919061042f565b335f73ffffffffffffffffffffffffffffffffffffffff168173ffffffffffffffffffffffffffffffffffffffff16036100a2575f6040517f1e4fbdf700000000000000000000000000000000000000000000000000000000815260040161009991906104a2565b60405180910390fd5b6100b1816102ab60201b60201c565b5060016100d06100c561036c60201b60201c565b61039560201b60201c565b5f01819055505f73ffffffffffffffffffffffffffffffffffffffff168473ffffffffffffffffffffffffffffffffffffffff16148061013b57505f73ffffffffffffffffffffffffffffffffffffffff168373ffffffffffffffffffffffffffffffffffffffff16145b8061017157505f73ffffffffffffffffffffffffffffffffffffffff168273ffffffffffffffffffffffffffffffffffffffff16145b156101a8576040517fd92e233d00000000000000000000000000000000000000000000000000000000815260040160405180910390fd5b6105dc8111156101f357806105dc6040517fe757126a0000000000000000000000000000000000000000000000000000000081526004016101ea9291906104ca565b60405180910390fd5b8373ffffffffffffffffffffffffffffffffffffffff1660808173ffffffffffffffffffffffffffffffffffffffff16815250508273ffffffffffffffffffffffffffffffffffffffff1660a08173ffffffffffffffffffffffffffffffffffffffff16815250508160015f6101000a81548173ffffffffffffffffffffffffffffffffffffffff021916908373ffffffffffffffffffffffffffffffffffffffff16021790555080600281905550505050506104f1565b5f5f5f9054906101000a900473ffffffffffffffffffffffffffffffffffffffff169050815f5f6101000a81548173ffffffffffffffffffffffffffffffffffffffff021916908373ffffffffffffffffffffffffffffffffffffffff1602179055508173ffffffffffffffffffffffffffffffffffffffff168173ffffffffffffffffffffffffffffffffffffffff167f8be0079c531659141344cd1fd0a4f28419497f9722a3daafe3b4186f6b6457e060405160405180910390a35050565b5f7f9b779b17422d0df92223018b32b4d1fa46e071723d6817e2486d003becc55f005f1b905090565b5f819050919050565b5f5ffd5b5f73ffffffffffffffffffffffffffffffffffffffff82169050919050565b5f6103cb826103a2565b9050919050565b6103db816103c1565b81146103e5575f5ffd5b50565b5f815190506103f6816103d2565b92915050565b5f819050919050565b61040e816103fc565b8114610418575f5ffd5b50565b5f8151905061042981610405565b92915050565b5f5f5f5f608085870312156104475761044661039e565b5b5f610454878288016103e8565b9450506020610465878288016103e8565b9350506040610476878288016103e8565b92505060606104878782880161041b565b91505092959194509250565b61049c816103c1565b82525050565b5f6020820190506104b55f830184610493565b92915050565b6104c4816103fc565b82525050565b5f6040820190506104dd5f8301856104bb565b6104ea60208301846104bb565b9392505050565b60805160a0516112bd6105355f395f81816104370152818161049f015261089601525f8181610378015281816103ed0152818161045901526105a901526112bd5ff3fe608060405234801561000f575f5ffd5b50600436106100b2575f3560e01c80638da5cb5b1161006f5780638da5cb5b14610152578063d55be8c614610170578063e74b981b1461018e578063f2fde38b146101aa578063f3f247eb146101c6578063fbfa77cf146101f6576100b2565b80630ec09672146100b657806322dcd13e146100d25780633e413bee146100f0578063469048401461010e578063715018a61461012c57806372c27b6214610136575b5f5ffd5b6100d060048036038101906100cb9190610e48565b610214565b005b6100da6105a1565b6040516100e79190610ebb565b60405180910390f35b6100f86105a7565b6040516101059190610f2f565b60405180910390f35b6101166105cb565b6040516101239190610f57565b60405180910390f35b6101346105f0565b005b610150600480360381019061014b9190610f70565b610603565b005b61015a61069b565b6040516101679190610f57565b60405180910390f35b6101786106c2565b6040516101859190610ebb565b60405180910390f35b6101a860048036038101906101a39190610f9b565b6106c8565b005b6101c460048036038101906101bf9190610f9b565b6107f3565b005b6101e060048036038101906101db9190610fc6565b610877565b6040516101ed919061100b565b60405180910390f35b6101fe610894565b60405161020b9190611044565b60405180910390f35b61021c6108b8565b5f8203610255576040517f1f2a200500000000000000000000000000000000000000000000000000000000815260040160405180910390fd5b5f73ffffffffffffffffffffffffffffffffffffffff168373ffffffffffffffffffffffffffffffffffffffff16036102ba576040517fd92e233d00000000000000000000000000000000000000000000000000000000815260040160405180910390fd5b60035f8581526020019081526020015f205f9054906101000a900460ff161561031a57836040517f1a20d3e6000000000000000000000000000000000000000000000000000000008152600401610311919061106c565b60405180910390fd5b600160035f8681526020019081526020015f205f6101000a81548160ff0219169083151502179055505f6127106002548461035591906110b2565b61035f9190611120565b90505f818461036e9190611150565b90506103bd3330867f000000000000000000000000000000000000000000000000000000000000000073ffffffffffffffffffffffffffffffffffffffff166108da909392919063ffffffff16565b5f8211156104325761043160015f9054906101000a900473ffffffffffffffffffffffffffffffffffffffff16837f000000000000000000000000000000000000000000000000000000000000000073ffffffffffffffffffffffffffffffffffffffff1661092f9092919063ffffffff16565b5b61049d7f0000000000000000000000000000000000000000000000000000000000000000827f000000000000000000000000000000000000000000000000000000000000000073ffffffffffffffffffffffffffffffffffffffff166109829092919063ffffffff16565b7f000000000000000000000000000000000000000000000000000000000000000073ffffffffffffffffffffffffffffffffffffffff166347e7ef2486836040518363ffffffff1660e01b81526004016104f8929190611183565b5f604051808303815f87803b15801561050f575f5ffd5b505af1158015610521573d5f5f3e3d5ffd5b505050508473ffffffffffffffffffffffffffffffffffffffff163373ffffffffffffffffffffffffffffffffffffffff16877f9a382c0b25850ee0a949870995686117205949f8e4fbb7083e6f6d51b23bff3d87868689604051610589949392919061121d565b60405180910390a4505061059b610a34565b50505050565b60025481565b7f000000000000000000000000000000000000000000000000000000000000000081565b60015f9054906101000a900473ffffffffffffffffffffffffffffffffffffffff1681565b6105f8610a4e565b6106015f610ad5565b565b61060b610a4e565b6105dc81111561065657806105dc6040517fe757126a00000000000000000000000000000000000000000000000000000000815260040161064d929190611260565b60405180910390fd5b7f528d9479e9f9889a87a3c30c7f7ba537e5e59c4c85a37733b16e57c62df6130260025482604051610689929190611260565b60405180910390a18060028190555050565b5f5f5f9054906101000a900473ffffffffffffffffffffffffffffffffffffffff16905090565b6105dc81565b6106d0610a4e565b5f73ffffffffffffffffffffffffffffffffffffffff168173ffffffffffffffffffffffffffffffffffffffff1603610735576040517fd92e233d00000000000000000000000000000000000000000000000000000000815260040160405180910390fd5b8073ffffffffffffffffffffffffffffffffffffffff1660015f9054906101000a900473ffffffffffffffffffffffffffffffffffffffff1673ffffffffffffffffffffffffffffffffffffffff167faaebcf1bfa00580e41d966056b48521fa9f202645c86d4ddf28113e617c1b1d360405160405180910390a38060015f6101000a81548173ffffffffffffffffffffffffffffffffffffffff021916908373ffffffffffffffffffffffffffffffffffffffff16021790555050565b6107fb610a4e565b5f73ffffffffffffffffffffffffffffffffffffffff168173ffffffffffffffffffffffffffffffffffffffff160361086b575f6040517f1e4fbdf70000000000000000000000000000000000000000000000000000000081526004016108629190610f57565b60405180910390fd5b61087481610ad5565b50565b6003602052805f5260405f205f915054906101000a900460ff1681565b7f000000000000000000000000000000000000000000000000000000000000000081565b6108c0610b96565b60026108d26108cd610bd7565b610c00565b5f0181905550565b6108e8848484846001610c09565b61092957836040517f5274afe70000000000000000000000000000000000000000000000000000000081526004016109209190610f57565b60405180910390fd5b50505050565b61093c8383836001610c7a565b61097d57826040517f5274afe70000000000000000000000000000000000000000000000000000000081526004016109749190610f57565b60405180910390fd5b505050565b61098e8383835f610cdc565b610a2f5761099f83835f6001610cdc565b6109e057826040517f5274afe70000000000000000000000000000000000000000000000000000000081526004016109d79190610f57565b60405180910390fd5b6109ed8383836001610cdc565b610a2e57826040517f5274afe7000000000000000000000000000000000000000000000000000000008152600401610a259190610f57565b60405180910390fd5b5b505050565b6001610a46610a41610bd7565b610c00565b5f0181905550565b610a56610d3e565b73ffffffffffffffffffffffffffffffffffffffff16610a7461069b565b73ffffffffffffffffffffffffffffffffffffffff1614610ad357610a97610d3e565b6040517f118cdaa7000000000000000000000000000000000000000000000000000000008152600401610aca9190610f57565b60405180910390fd5b565b5f5f5f9054906101000a900473ffffffffffffffffffffffffffffffffffffffff169050815f5f6101000a81548173ffffffffffffffffffffffffffffffffffffffff021916908373ffffffffffffffffffffffffffffffffffffffff1602179055508173ffffffffffffffffffffffffffffffffffffffff168173ffffffffffffffffffffffffffffffffffffffff167f8be0079c531659141344cd1fd0a4f28419497f9722a3daafe3b4186f6b6457e060405160405180910390a35050565b610b9e610d45565b15610bd5576040517f3ee5aeb500000000000000000000000000000000000000000000000000000000815260040160405180910390fd5b565b5f7f9b779b17422d0df92223018b32b4d1fa46e071723d6817e2486d003becc55f005f1b905090565b5f819050919050565b5f5f6323b872dd60e01b9050604051815f525f1960601c87166004525f1960601c86166024528460445260205f60645f5f8c5af1925060015f51148316610c67578383151615610c5b573d5f823e3d81fd5b5f883b113d1516831692505b806040525f606052505095945050505050565b5f5f63a9059cbb60e01b9050604051815f525f1960601c86166004528460245260205f60445f5f8b5af1925060015f51148316610cce578383151615610cc2573d5f823e3d81fd5b5f873b113d1516831692505b806040525050949350505050565b5f5f63095ea7b360e01b9050604051815f525f1960601c86166004528460245260205f60445f5f8b5af1925060015f51148316610d30578383151615610d24573d5f823e3d81fd5b5f873b113d1516831692505b806040525050949350505050565b5f33905090565b5f6002610d58610d53610bd7565b610c00565b5f015414905090565b5f5ffd5b5f819050919050565b610d7781610d65565b8114610d81575f5ffd5b50565b5f81359050610d9281610d6e565b92915050565b5f73ffffffffffffffffffffffffffffffffffffffff82169050919050565b5f610dc182610d98565b9050919050565b610dd181610db7565b8114610ddb575f5ffd5b50565b5f81359050610dec81610dc8565b92915050565b5f819050919050565b610e0481610df2565b8114610e0e575f5ffd5b50565b5f81359050610e1f81610dfb565b92915050565b60048110610e31575f5ffd5b50565b5f81359050610e4281610e25565b92915050565b5f5f5f5f60808587031215610e6057610e5f610d61565b5b5f610e6d87828801610d84565b9450506020610e7e87828801610dde565b9350506040610e8f87828801610e11565b9250506060610ea087828801610e34565b91505092959194509250565b610eb581610df2565b82525050565b5f602082019050610ece5f830184610eac565b92915050565b5f819050919050565b5f610ef7610ef2610eed84610d98565b610ed4565b610d98565b9050919050565b5f610f0882610edd565b9050919050565b5f610f1982610efe565b9050919050565b610f2981610f0f565b82525050565b5f602082019050610f425f830184610f20565b92915050565b610f5181610db7565b82525050565b5f602082019050610f6a5f830184610f48565b92915050565b5f60208284031215610f8557610f84610d61565b5b5f610f9284828501610e11565b91505092915050565b5f60208284031215610fb057610faf610d61565b5b5f610fbd84828501610dde565b91505092915050565b5f60208284031215610fdb57610fda610d61565b5b5f610fe884828501610d84565b91505092915050565b5f8115159050919050565b61100581610ff1565b82525050565b5f60208201905061101e5f830184610ffc565b92915050565b5f61102e82610efe565b9050919050565b61103e81611024565b82525050565b5f6020820190506110575f830184611035565b92915050565b61106681610d65565b82525050565b5f60208201905061107f5f83018461105d565b92915050565b7f4e487b71000000000000000000000000000000000000000000000000000000005f52601160045260245ffd5b5f6110bc82610df2565b91506110c783610df2565b92508282026110d581610df2565b915082820484148315176110ec576110eb611085565b5b5092915050565b7f4e487b71000000000000000000000000000000000000000000000000000000005f52601260045260245ffd5b5f61112a82610df2565b915061113583610df2565b925082611145576111446110f3565b5b828204905092915050565b5f61115a82610df2565b915061116583610df2565b925082820390508181111561117d5761117c611085565b5b92915050565b5f6040820190506111965f830185610f48565b6111a36020830184610eac565b9392505050565b7f4e487b71000000000000000000000000000000000000000000000000000000005f52602160045260245ffd5b600481106111e8576111e76111aa565b5b50565b5f8190506111f8826111d7565b919050565b5f611207826111eb565b9050919050565b611217816111fd565b82525050565b5f6080820190506112305f830187610eac565b61123d6020830186610eac565b61124a6040830185610eac565b611257606083018461120e565b95945050505050565b5f6040820190506112735f830185610eac565b6112806020830184610eac565b939250505056fea26469706673582212204d22c7a0b9733bc45e7c97c36e0a5a985aa13bd88b8aa8eee8b9438582a17ffa64736f6c63430008230033","linkReferences":{}},"methodIdentifiers":{"MAX_FEE_BPS()":"d55be8c6","feeRecipient()":"46904840","owner()":"8da5cb5b","pay(bytes32,address,uint256,uint8)":"0ec09672","platformFeeBps()":"22dcd13e","processedPayments(bytes32)":"f3f247eb","renounceOwnership()":"715018a6","setFeeBps(uint256)":"72c27b62","setFeeRecipient(address)":"e74b981b","transferOwnership(address)":"f2fde38b","usdc()":"3e413bee","vault()":"fbfa77cf"},"id":13}