{"abi":[{"type":"constructor","inputs":[{"name":"_usdc","type":"address","internalType":"address"}],"stateMutability":"nonpayable"},{"type":"function","name":"balanceOf","inputs":[{"name":"creator","type":"address","internalType":"address"}],"outputs":[{"name":"","type":"uint256","internalType":"uint256"}],"stateMutability":"view"},{"type":"function","name":"balances","inputs":[{"name":"","type":"address","internalType":"address"}],"outputs":[{"name":"","type":"uint256","internalType":"uint256"}],"stateMutability":"view"},{"type":"function","name":"contractBalance","inputs":[],"outputs":[{"name":"","type":"uint256","internalType":"uint256"}],"stateMutability":"view"},{"type":"function","name":"deposit","inputs":[{"name":"creator","type":"address","internalType":"address"},{"name":"amount","type":"uint256","internalType":"uint256"}],"outputs":[],"stateMutability":"nonpayable"},{"type":"function","name":"owner","inputs":[],"outputs":[{"name":"","type":"address","internalType":"address"}],"stateMutability":"view"},{"type":"function","name":"renounceOwnership","inputs":[],"outputs":[],"stateMutability":"nonpayable"},{"type":"function","name":"router","inputs":[],"outputs":[{"name":"","type":"address","internalType":"address"}],"stateMutability":"view"},{"type":"function","name":"selfWithdraw","inputs":[{"name":"amount","type":"uint256","internalType":"uint256"}],"outputs":[],"stateMutability":"nonpayable"},{"type":"function","name":"setRouter","inputs":[{"name":"_router","type":"address","internalType":"address"}],"outputs":[],"stateMutability":"nonpayable"},{"type":"function","name":"totalDeposited","inputs":[],"outputs":[{"name":"","type":"uint256","internalType":"uint256"}],"stateMutability":"view"},{"type":"function","name":"totalWithdrawn","inputs":[],"outputs":[{"name":"","type":"uint256","internalType":"uint256"}],"stateMutability":"view"},{"type":"function","name":"transferOwnership","inputs":[{"name":"newOwner","type":"address","internalType":"address"}],"outputs":[],"stateMutability":"nonpayable"},{"type":"function","name":"usdc","inputs":[],"outputs":[{"name":"","type":"address","internalType":"contract IERC20"}],"stateMutability":"view"},{"type":"function","name":"withdraw","inputs":[{"name":"creator","type":"address","internalType":"address"},{"name":"to","type":"address","internalType":"address"},{"name":"amount","type":"uint256","internalType":"uint256"}],"outputs":[],"stateMutability":"nonpayable"},{"type":"event","name":"Deposited","inputs":[{"name":"creator","type":"address","indexed":true,"internalType":"address"},{"name":"amount","type":"uint256","indexed":false,"internalType":"uint256"},{"name":"newBalance","type":"uint256","indexed":false,"internalType":"uint256"}],"anonymous":false},{"type":"event","name":"OwnershipTransferred","inputs":[{"name":"previousOwner","type":"address","indexed":true,"internalType":"address"},{"name":"newOwner","type":"address","indexed":true,"internalType":"address"}],"anonymous":false},{"type":"event","name":"RouterUpdated","inputs":[{"name":"oldRouter","type":"address","indexed":true,"internalType":"address"},{"name":"newRouter","type":"address","indexed":true,"internalType":"address"}],"anonymous":false},{"type":"event","name":"Withdrawn","inputs":[{"name":"creator","type":"address","indexed":true,"internalType":"address"},{"name":"to","type":"address","indexed":true,"internalType":"address"},{"name":"amount","type":"uint256","indexed":false,"internalType":"uint256"}],"anonymous":false},{"type":"error","name":"InsufficientBalance","inputs":[{"name":"requested","type":"uint256","internalType":"uint256"},{"name":"available","type":"uint256","internalType":"uint256"}]},{"type":"error","name":"OnlyRouter","inputs":[]},{"type":"error","name":"OwnableInvalidOwner","inputs":[{"name":"owner","type":"address","internalType":"address"}]},{"type":"error","name":"OwnableUnauthorizedAccount","inputs":[{"name":"account","type":"address","internalType":"address"}]},{"type":"error","name":"ReentrancyGuardReentrantCall","inputs":[]},{"type":"error","name":"SafeERC20FailedOperation","inputs":[{"name":"token","type":"address","internalType":"address"}]},{"type":"error","name":"ZeroAddress","inputs":[]},{"type":"error","name":"ZeroAmount","inputs":[]}],"bytecode":{"object":"0x60a060405234801561000f575f5ffd5b50604051611753380380611753833981810160405281019061003191906102c6565b335f73ffffffffffffffffffffffffffffffffffffffff168173ffffffffffffffffffffffffffffffffffffffff16036100a2575f6040517f1e4fbdf70000000000000000000000000000000000000000000000000000000081526004016100999190610300565b60405180910390fd5b6100b18161017560201b60201c565b5060016100d06100c561023660201b60201c565b61025f60201b60201c565b5f01819055505f73ffffffffffffffffffffffffffffffffffffffff168173ffffffffffffffffffffffffffffffffffffffff160361013b576040517fd92e233d00000000000000000000000000000000000000000000000000000000815260040160405180910390fd5b8073ffffffffffffffffffffffffffffffffffffffff1660808173ffffffffffffffffffffffffffffffffffffffff168152505050610319565b5f5f5f9054906101000a900473ffffffffffffffffffffffffffffffffffffffff169050815f5f6101000a81548173ffffffffffffffffffffffffffffffffffffffff021916908373ffffffffffffffffffffffffffffffffffffffff1602179055508173ffffffffffffffffffffffffffffffffffffffff168173ffffffffffffffffffffffffffffffffffffffff167f8be0079c531659141344cd1fd0a4f28419497f9722a3daafe3b4186f6b6457e060405160405180910390a35050565b5f7f9b779b17422d0df92223018b32b4d1fa46e071723d6817e2486d003becc55f005f1b905090565b5f819050919050565b5f5ffd5b5f73ffffffffffffffffffffffffffffffffffffffff82169050919050565b5f6102958261026c565b9050919050565b6102a58161028b565b81146102af575f5ffd5b50565b5f815190506102c08161029c565b92915050565b5f602082840312156102db576102da610268565b5b5f6102e8848285016102b2565b91505092915050565b6102fa8161028b565b82525050565b5f6020820190506103135f8301846102f1565b92915050565b60805161140661034d5f395f81816102ad01528181610403015281816106c6015281816107d60152610ba401526114065ff3fe608060405234801561000f575f5ffd5b50600436106100e8575f3560e01c80638b7afe2e1161008a578063d9caed1211610064578063d9caed1214610222578063f2fde38b1461023e578063f887ea401461025a578063ff50abdc14610278576100e8565b80638b7afe2e146101ca5780638da5cb5b146101e8578063c0d7865514610206576100e8565b80634b319713116100c65780634b319713146101565780636f2e836a1461017457806370a0823114610190578063715018a6146101c0576100e8565b806327e235e3146100ec5780633e413bee1461011c57806347e7ef241461013a575b5f5ffd5b610106600480360381019061010191906110fc565b610296565b604051610113919061113f565b60405180910390f35b6101246102ab565b60405161013191906111b3565b60405180910390f35b610154600480360381019061014f91906111f6565b6102cf565b005b61015e61054c565b60405161016b919061113f565b60405180910390f35b61018e60048036038101906101899190611234565b610552565b005b6101aa60048036038101906101a591906110fc565b61077a565b6040516101b7919061113f565b60405180910390f35b6101c86107c0565b005b6101d26107d3565b6040516101df919061113f565b60405180910390f35b6101f0610871565b6040516101fd919061126e565b60405180910390f35b610220600480360381019061021b91906110fc565b610898565b005b61023c60048036038101906102379190611287565b6109c3565b005b610258600480360381019061025391906110fc565b610c5a565b005b610262610cde565b60405161026f919061126e565b60405180910390f35b610280610d03565b60405161028d919061113f565b60405180910390f35b6002602052805f5260405f205f915090505481565b7f000000000000000000000000000000000000000000000000000000000000000081565b60015f9054906101000a900473ffffffffffffffffffffffffffffffffffffffff1673ffffffffffffffffffffffffffffffffffffffff163373ffffffffffffffffffffffffffffffffffffffff1614610355576040517f9e41bdd700000000000000000000000000000000000000000000000000000000815260040160405180910390fd5b61035d610d09565b5f8103610396576040517f1f2a200500000000000000000000000000000000000000000000000000000000815260040160405180910390fd5b5f73ffffffffffffffffffffffffffffffffffffffff168273ffffffffffffffffffffffffffffffffffffffff16036103fb576040517fd92e233d00000000000000000000000000000000000000000000000000000000815260040160405180910390fd5b6104483330837f000000000000000000000000000000000000000000000000000000000000000073ffffffffffffffffffffffffffffffffffffffff16610d2b909392919063ffffffff16565b8060025f8473ffffffffffffffffffffffffffffffffffffffff1673ffffffffffffffffffffffffffffffffffffffff1681526020019081526020015f205f8282546104949190611304565b925050819055508060035f8282546104ac9190611304565b925050819055508173ffffffffffffffffffffffffffffffffffffffff167f73a19dd210f1a7f902193214c0ee91dd35ee5b4d920cba8d519eca65a7b488ca8260025f8673ffffffffffffffffffffffffffffffffffffffff1673ffffffffffffffffffffffffffffffffffffffff1681526020019081526020015f2054604051610538929190611337565b60405180910390a2610548610d80565b5050565b60045481565b61055a610d09565b5f8103610593576040517f1f2a200500000000000000000000000000000000000000000000000000000000815260040160405180910390fd5b8060025f3373ffffffffffffffffffffffffffffffffffffffff1673ffffffffffffffffffffffffffffffffffffffff1681526020019081526020015f20541015610654578060025f3373ffffffffffffffffffffffffffffffffffffffff1673ffffffffffffffffffffffffffffffffffffffff1681526020019081526020015f20546040517fcf47918100000000000000000000000000000000000000000000000000000000815260040161064b929190611337565b60405180910390fd5b8060025f3373ffffffffffffffffffffffffffffffffffffffff1673ffffffffffffffffffffffffffffffffffffffff1681526020019081526020015f205f8282546106a0919061135e565b925050819055508060045f8282546106b89190611304565b9250508190555061070a33827f000000000000000000000000000000000000000000000000000000000000000073ffffffffffffffffffffffffffffffffffffffff16610d9a9092919063ffffffff16565b3373ffffffffffffffffffffffffffffffffffffffff163373ffffffffffffffffffffffffffffffffffffffff167fd1c19fbcd4551a5edfb66d43d2e337c04837afda3482b42bdf569a8fccdae5fb83604051610767919061113f565b60405180910390a3610777610d80565b50565b5f60025f8373ffffffffffffffffffffffffffffffffffffffff1673ffffffffffffffffffffffffffffffffffffffff1681526020019081526020015f20549050919050565b6107c8610ded565b6107d15f610e74565b565b5f7f000000000000000000000000000000000000000000000000000000000000000073ffffffffffffffffffffffffffffffffffffffff166370a08231306040518263ffffffff1660e01b815260040161082d919061126e565b602060405180830381865afa158015610848573d5f5f3e3d5ffd5b505050506040513d601f19601f8201168201806040525081019061086c91906113a5565b905090565b5f5f5f9054906101000a900473ffffffffffffffffffffffffffffffffffffffff16905090565b6108a0610ded565b5f73ffffffffffffffffffffffffffffffffffffffff168173ffffffffffffffffffffffffffffffffffffffff1603610905576040517fd92e233d00000000000000000000000000000000000000000000000000000000815260040160405180910390fd5b8073ffffffffffffffffffffffffffffffffffffffff1660015f9054906101000a900473ffffffffffffffffffffffffffffffffffffffff1673ffffffffffffffffffffffffffffffffffffffff167f02dc5c233404867c793b749c6d644beb2277536d18a7e7974d3f238e4c6f168460405160405180910390a38060015f6101000a81548173ffffffffffffffffffffffffffffffffffffffff021916908373ffffffffffffffffffffffffffffffffffffffff16021790555050565b6109cb610ded565b6109d3610d09565b5f8103610a0c576040517f1f2a200500000000000000000000000000000000000000000000000000000000815260040160405180910390fd5b5f73ffffffffffffffffffffffffffffffffffffffff168273ffffffffffffffffffffffffffffffffffffffff1603610a71576040517fd92e233d00000000000000000000000000000000000000000000000000000000815260040160405180910390fd5b8060025f8573ffffffffffffffffffffffffffffffffffffffff1673ffffffffffffffffffffffffffffffffffffffff1681526020019081526020015f20541015610b32578060025f8573ffffffffffffffffffffffffffffffffffffffff1673ffffffffffffffffffffffffffffffffffffffff1681526020019081526020015f20546040517fcf479181000000000000000000000000000000000000000000000000000000008152600401610b29929190611337565b60405180910390fd5b8060025f8573ffffffffffffffffffffffffffffffffffffffff1673ffffffffffffffffffffffffffffffffffffffff1681526020019081526020015f205f828254610b7e919061135e565b925050819055508060045f828254610b969190611304565b92505081905550610be882827f000000000000000000000000000000000000000000000000000000000000000073ffffffffffffffffffffffffffffffffffffffff16610d9a9092919063ffffffff16565b8173ffffffffffffffffffffffffffffffffffffffff168373ffffffffffffffffffffffffffffffffffffffff167fd1c19fbcd4551a5edfb66d43d2e337c04837afda3482b42bdf569a8fccdae5fb83604051610c45919061113f565b60405180910390a3610c55610d80565b505050565b610c62610ded565b5f73ffffffffffffffffffffffffffffffffffffffff168173ffffffffffffffffffffffffffffffffffffffff1603610cd2575f6040517f1e4fbdf7000000000000000000000000000000000000000000000000000000008152600401610cc9919061126e565b60405180910390fd5b610cdb81610e74565b50565b60015f9054906101000a900473ffffffffffffffffffffffffffffffffffffffff1681565b60035481565b610d11610f35565b6002610d23610d1e610f76565b610f9f565b5f0181905550565b610d39848484846001610fa8565b610d7a57836040517f5274afe7000000000000000000000000000000000000000000000000000000008152600401610d71919061126e565b60405180910390fd5b50505050565b6001610d92610d8d610f76565b610f9f565b5f0181905550565b610da78383836001611019565b610de857826040517f5274afe7000000000000000000000000000000000000000000000000000000008152600401610ddf919061126e565b60405180910390fd5b505050565b610df561107b565b73ffffffffffffffffffffffffffffffffffffffff16610e13610871565b73ffffffffffffffffffffffffffffffffffffffff1614610e7257610e3661107b565b6040517f118cdaa7000000000000000000000000000000000000000000000000000000008152600401610e69919061126e565b60405180910390fd5b565b5f5f5f9054906101000a900473ffffffffffffffffffffffffffffffffffffffff169050815f5f6101000a81548173ffffffffffffffffffffffffffffffffffffffff021916908373ffffffffffffffffffffffffffffffffffffffff1602179055508173ffffffffffffffffffffffffffffffffffffffff168173ffffffffffffffffffffffffffffffffffffffff167f8be0079c531659141344cd1fd0a4f28419497f9722a3daafe3b4186f6b6457e060405160405180910390a35050565b610f3d611082565b15610f74576040517f3ee5aeb500000000000000000000000000000000000000000000000000000000815260040160405180910390fd5b565b5f7f9b779b17422d0df92223018b32b4d1fa46e071723d6817e2486d003becc55f005f1b905090565b5f819050919050565b5f5f6323b872dd60e01b9050604051815f525f1960601c87166004525f1960601c86166024528460445260205f60645f5f8c5af1925060015f51148316611006578383151615610ffa573d5f823e3d81fd5b5f883b113d1516831692505b806040525f606052505095945050505050565b5f5f63a9059cbb60e01b9050604051815f525f1960601c86166004528460245260205f60445f5f8b5af1925060015f5114831661106d578383151615611061573d5f823e3d81fd5b5f873b113d1516831692505b806040525050949350505050565b5f33905090565b5f6002611095611090610f76565b610f9f565b5f015414905090565b5f5ffd5b5f73ffffffffffffffffffffffffffffffffffffffff82169050919050565b5f6110cb826110a2565b9050919050565b6110db816110c1565b81146110e5575f5ffd5b50565b5f813590506110f6816110d2565b92915050565b5f602082840312156111115761111061109e565b5b5f61111e848285016110e8565b91505092915050565b5f819050919050565b61113981611127565b82525050565b5f6020820190506111525f830184611130565b92915050565b5f819050919050565b5f61117b611176611171846110a2565b611158565b6110a2565b9050919050565b5f61118c82611161565b9050919050565b5f61119d82611182565b9050919050565b6111ad81611193565b82525050565b5f6020820190506111c65f8301846111a4565b92915050565b6111d581611127565b81146111df575f5ffd5b50565b5f813590506111f0816111cc565b92915050565b5f5f6040838503121561120c5761120b61109e565b5b5f611219858286016110e8565b925050602061122a858286016111e2565b9150509250929050565b5f602082840312156112495761124861109e565b5b5f611256848285016111e2565b91505092915050565b611268816110c1565b82525050565b5f6020820190506112815f83018461125f565b92915050565b5f5f5f6060848603121561129e5761129d61109e565b5b5f6112ab868287016110e8565b93505060206112bc868287016110e8565b92505060406112cd868287016111e2565b9150509250925092565b7f4e487b71000000000000000000000000000000000000000000000000000000005f52601160045260245ffd5b5f61130e82611127565b915061131983611127565b9250828201905080821115611331576113306112d7565b5b92915050565b5f60408201905061134a5f830185611130565b6113576020830184611130565b9392505050565b5f61136882611127565b915061137383611127565b925082820390508181111561138b5761138a6112d7565b5b92915050565b5f8151905061139f816111cc565b92915050565b5f602082840312156113ba576113b961109e565b5b5f6113c784828501611391565b9150509291505056fea26469706673582212204d59a63a306da8b308347849c0564afc6a36e89338ad014615fecb3c661d36d164736f6c63430008230033","linkReferences":{}},"methodIdentifiers":{"balanceOf(address)":"70a08231","balances(address)":"27e235e3","contractBalance()":"8b7afe2e","deposit(address,uint256)":"47e7ef24","owner()":"8da5cb5b","renounceOwnership()":"715018a6","router()":"f887ea40","selfWithdraw(uint256)":"6f2e836a","setRouter(address)":"c0d78655","totalDeposited()":"ff50abdc","totalWithdrawn()":"4b319713","transferOwnership(address)":"f2fde38b","usdc()":"3e413bee","withdraw(address,address,uint256)":"d9caed12"},"id":16}