{"abi":[{"type":"constructor","inputs":[],"stateMutability":"nonpayable"},{"type":"function","name":"activeSubs","inputs":[{"name":"","type":"address","internalType":"address"},{"name":"","type":"bytes32","internalType":"bytes32"}],"outputs":[{"name":"","type":"bytes32","internalType":"bytes32"}],"stateMutability":"view"},{"type":"function","name":"cancelSubscription","inputs":[{"name":"subId","type":"bytes32","internalType":"bytes32"}],"outputs":[],"stateMutability":"nonpayable"},{"type":"function","name":"createSubscription","inputs":[{"name":"subId","type":"bytes32","internalType":"bytes32"},{"name":"subscriber","type":"address","internalType":"address"},{"name":"creator","type":"address","internalType":"address"},{"name":"tierId","type":"bytes32","internalType":"bytes32"},{"name":"periodEnd","type":"uint256","internalType":"uint256"}],"outputs":[],"stateMutability":"nonpayable"},{"type":"function","name":"getUserSubscriptions","inputs":[{"name":"subscriber","type":"address","internalType":"address"}],"outputs":[{"name":"","type":"bytes32[]","internalType":"bytes32[]"}],"stateMutability":"view"},{"type":"function","name":"isSubscribed","inputs":[{"name":"subscriber","type":"address","internalType":"address"},{"name":"tierId","type":"bytes32","internalType":"bytes32"}],"outputs":[{"name":"","type":"bool","internalType":"bool"}],"stateMutability":"view"},{"type":"function","name":"owner","inputs":[],"outputs":[{"name":"","type":"address","internalType":"address"}],"stateMutability":"view"},{"type":"function","name":"renewSubscription","inputs":[{"name":"subId","type":"bytes32","internalType":"bytes32"},{"name":"newPeriodEnd","type":"uint256","internalType":"uint256"}],"outputs":[],"stateMutability":"nonpayable"},{"type":"function","name":"renounceOwnership","inputs":[],"outputs":[],"stateMutability":"nonpayable"},{"type":"function","name":"router","inputs":[],"outputs":[{"name":"","type":"address","internalType":"address"}],"stateMutability":"view"},{"type":"function","name":"setRouter","inputs":[{"name":"_router","type":"address","internalType":"address"}],"outputs":[],"stateMutability":"nonpayable"},{"type":"function","name":"subscriptions","inputs":[{"name":"","type":"bytes32","internalType":"bytes32"}],"outputs":[{"name":"subscriber","type":"address","internalType":"address"},{"name":"creator","type":"address","internalType":"address"},{"name":"tierId","type":"bytes32","internalType":"bytes32"},{"name":"startedAt","type":"uint256","internalType":"uint256"},{"name":"currentPeriodEnd","type":"uint256","internalType":"uint256"},{"name":"active","type":"bool","internalType":"bool"}],"stateMutability":"view"},{"type":"function","name":"transferOwnership","inputs":[{"name":"newOwner","type":"address","internalType":"address"}],"outputs":[],"stateMutability":"nonpayable"},{"type":"function","name":"userSubscriptionIds","inputs":[{"name":"","type":"address","internalType":"address"},{"name":"","type":"uint256","internalType":"uint256"}],"outputs":[{"name":"","type":"bytes32","internalType":"bytes32"}],"stateMutability":"view"},{"type":"event","name":"OwnershipTransferred","inputs":[{"name":"previousOwner","type":"address","indexed":true,"internalType":"address"},{"name":"newOwner","type":"address","indexed":true,"internalType":"address"}],"anonymous":false},{"type":"event","name":"SubscriptionCancelled","inputs":[{"name":"subId","type":"bytes32","indexed":true,"internalType":"bytes32"}],"anonymous":false},{"type":"event","name":"SubscriptionCreated","inputs":[{"name":"subId","type":"bytes32","indexed":true,"internalType":"bytes32"},{"name":"subscriber","type":"address","indexed":true,"internalType":"address"},{"name":"creator","type":"address","indexed":true,"internalType":"address"},{"name":"tierId","type":"bytes32","indexed":false,"internalType":"bytes32"},{"name":"periodEnd","type":"uint256","indexed":false,"internalType":"uint256"}],"anonymous":false},{"type":"event","name":"SubscriptionRenewed","inputs":[{"name":"subId","type":"bytes32","indexed":true,"internalType":"bytes32"},{"name":"newPeriodEnd","type":"uint256","indexed":false,"internalType":"uint256"}],"anonymous":false},{"type":"error","name":"AlreadyExists","inputs":[{"name":"subId","type":"bytes32","internalType":"bytes32"}]},{"type":"error","name":"NotActive","inputs":[{"name":"subId","type":"bytes32","internalType":"bytes32"}]},{"type":"error","name":"OnlyRouter","inputs":[]},{"type":"error","name":"OwnableInvalidOwner","inputs":[{"name":"owner","type":"address","internalType":"address"}]},{"type":"error","name":"OwnableUnauthorizedAccount","inputs":[{"name":"account","type":"address","internalType":"address"}]},{"type":"error","name":"Unauthorized","inputs":[]}],"bytecode":{"object":"0x608060405234801561000f575f5ffd5b50335f73ffffffffffffffffffffffffffffffffffffffff168173ffffffffffffffffffffffffffffffffffffffff1603610081575f6040517f1e4fbdf70000000000000000000000000000000000000000000000000000000081526004016100789190610196565b60405180910390fd5b6100908161009660201b60201c565b506101af565b5f5f5f9054906101000a900473ffffffffffffffffffffffffffffffffffffffff169050815f5f6101000a81548173ffffffffffffffffffffffffffffffffffffffff021916908373ffffffffffffffffffffffffffffffffffffffff1602179055508173ffffffffffffffffffffffffffffffffffffffff168173ffffffffffffffffffffffffffffffffffffffff167f8be0079c531659141344cd1fd0a4f28419497f9722a3daafe3b4186f6b6457e060405160405180910390a35050565b5f73ffffffffffffffffffffffffffffffffffffffff82169050919050565b5f61018082610157565b9050919050565b61019081610176565b82525050565b5f6020820190506101a95f830184610187565b92915050565b6111a5806101bc5f395ff3fe608060405234801561000f575f5ffd5b50600436106100cd575f3560e01c806394259c6c1161008a578063d21f1ffc11610064578063d21f1ffc14610212578063f2fde38b1461022e578063f887ea401461024a578063f9cbd25114610268576100cd565b806394259c6c146101a5578063b796d209146101da578063c0d78655146101f6576100cd565b806304bfb5f2146100d1578063054a2ba1146100ed5780632e6ca5881461011d578063715018a61461014d57806380eea1ee146101575780638da5cb5b14610187575b5f5ffd5b6100eb60048036038101906100e69190610de0565b610298565b005b61010760048036038101906101029190610e57565b6105ce565b6040516101149190610ea4565b60405180910390f35b61013760048036038101906101329190610ebd565b6105ee565b6040516101449190610f9f565b60405180910390f35b610155610681565b005b610171600480360381019061016c9190610e57565b610694565b60405161017e9190610fd9565b60405180910390f35b61018f610736565b60405161019c9190611001565b60405180910390f35b6101bf60048036038101906101ba919061101a565b61075d565b6040516101d196959493929190611054565b60405180910390f35b6101f460048036038101906101ef91906110b3565b6107df565b005b610210600480360381019061020b9190610ebd565b610911565b005b61022c6004803603810190610227919061101a565b61095c565b005b61024860048036038101906102439190610ebd565b610af9565b005b610252610b7d565b60405161025f9190611001565b60405180910390f35b610282600480360381019061027d91906110f1565b610ba2565b60405161028f9190610ea4565b60405180910390f35b60045f9054906101000a900473ffffffffffffffffffffffffffffffffffffffff1673ffffffffffffffffffffffffffffffffffffffff163373ffffffffffffffffffffffffffffffffffffffff161461031e576040517f9e41bdd700000000000000000000000000000000000000000000000000000000815260040160405180910390fd5b5f60015f8781526020019081526020015f20600301541461037657846040517f129bcbc400000000000000000000000000000000000000000000000000000000815260040161036d9190610ea4565b60405180910390fd5b6040518060c001604052808573ffffffffffffffffffffffffffffffffffffffff1681526020018473ffffffffffffffffffffffffffffffffffffffff1681526020018381526020014281526020018281526020016001151581525060015f8781526020019081526020015f205f820151815f015f6101000a81548173ffffffffffffffffffffffffffffffffffffffff021916908373ffffffffffffffffffffffffffffffffffffffff1602179055506020820151816001015f6101000a81548173ffffffffffffffffffffffffffffffffffffffff021916908373ffffffffffffffffffffffffffffffffffffffff16021790555060408201518160020155606082015181600301556080820151816004015560a0820151816005015f6101000a81548160ff02191690831515021790555090505060025f8573ffffffffffffffffffffffffffffffffffffffff1673ffffffffffffffffffffffffffffffffffffffff1681526020019081526020015f2085908060018154018082558091505060019003905f5260205f20015f90919091909150558460035f8673ffffffffffffffffffffffffffffffffffffffff1673ffffffffffffffffffffffffffffffffffffffff1681526020019081526020015f205f8481526020019081526020015f20819055508273ffffffffffffffffffffffffffffffffffffffff168473ffffffffffffffffffffffffffffffffffffffff16867f61b808c133197078dac67e66133cffdb4b405d2e2da6741d2d08df02cecbdd8b85856040516105bf92919061112f565b60405180910390a45050505050565b6003602052815f5260405f20602052805f5260405f205f91509150505481565b606060025f8373ffffffffffffffffffffffffffffffffffffffff1673ffffffffffffffffffffffffffffffffffffffff1681526020019081526020015f2080548060200260200160405190810160405280929190818152602001828054801561067557602002820191905f5260205f20905b815481526020019060010190808311610661575b50505050509050919050565b610689610bcd565b6106925f610c54565b565b5f5f60035f8573ffffffffffffffffffffffffffffffffffffffff1673ffffffffffffffffffffffffffffffffffffffff1681526020019081526020015f205f8481526020019081526020015f205490505f5f1b81036106f7575f915050610730565b5f60015f8381526020019081526020015f209050806005015f9054906101000a900460ff16801561072b5750428160040154115b925050505b92915050565b5f5f5f9054906101000a900473ffffffffffffffffffffffffffffffffffffffff16905090565b6001602052805f5260405f205f91509050805f015f9054906101000a900473ffffffffffffffffffffffffffffffffffffffff1690806001015f9054906101000a900473ffffffffffffffffffffffffffffffffffffffff1690806002015490806003015490806004015490806005015f9054906101000a900460ff16905086565b60045f9054906101000a900473ffffffffffffffffffffffffffffffffffffffff1673ffffffffffffffffffffffffffffffffffffffff163373ffffffffffffffffffffffffffffffffffffffff1614610865576040517f9e41bdd700000000000000000000000000000000000000000000000000000000815260040160405180910390fd5b5f60015f8481526020019081526020015f209050806005015f9054906101000a900460ff166108cb57826040517fdb39125e0000000000000000000000000000000000000000000000000000000081526004016108c29190610ea4565b60405180910390fd5b818160040181905550827fac462624cb7b3b569a88bfd4deaf0629cfa533de5df643cb0d778459453ae18a836040516109049190611156565b60405180910390a2505050565b610919610bcd565b8060045f6101000a81548173ffffffffffffffffffffffffffffffffffffffff021916908373ffffffffffffffffffffffffffffffffffffffff16021790555050565b5f60015f8381526020019081526020015f2090503373ffffffffffffffffffffffffffffffffffffffff16815f015f9054906101000a900473ffffffffffffffffffffffffffffffffffffffff1673ffffffffffffffffffffffffffffffffffffffff1614158015610a0157506109d1610736565b73ffffffffffffffffffffffffffffffffffffffff163373ffffffffffffffffffffffffffffffffffffffff1614155b15610a38576040517f82b4290000000000000000000000000000000000000000000000000000000000815260040160405180910390fd5b5f816005015f6101000a81548160ff02191690831515021790555060035f825f015f9054906101000a900473ffffffffffffffffffffffffffffffffffffffff1673ffffffffffffffffffffffffffffffffffffffff1673ffffffffffffffffffffffffffffffffffffffff1681526020019081526020015f205f826002015481526020019081526020015f205f9055817fcef6ecfd66d42c68c27def452dfeb1195cab6999685acd9ae7c30b11b51c587a60405160405180910390a25050565b610b01610bcd565b5f73ffffffffffffffffffffffffffffffffffffffff168173ffffffffffffffffffffffffffffffffffffffff1603610b71575f6040517f1e4fbdf7000000000000000000000000000000000000000000000000000000008152600401610b689190611001565b60405180910390fd5b610b7a81610c54565b50565b60045f9054906101000a900473ffffffffffffffffffffffffffffffffffffffff1681565b6002602052815f5260405f208181548110610bbb575f80fd5b905f5260205f20015f91509150505481565b610bd5610d15565b73ffffffffffffffffffffffffffffffffffffffff16610bf3610736565b73ffffffffffffffffffffffffffffffffffffffff1614610c5257610c16610d15565b6040517f118cdaa7000000000000000000000000000000000000000000000000000000008152600401610c499190611001565b60405180910390fd5b565b5f5f5f9054906101000a900473ffffffffffffffffffffffffffffffffffffffff169050815f5f6101000a81548173ffffffffffffffffffffffffffffffffffffffff021916908373ffffffffffffffffffffffffffffffffffffffff1602179055508173ffffffffffffffffffffffffffffffffffffffff168173ffffffffffffffffffffffffffffffffffffffff167f8be0079c531659141344cd1fd0a4f28419497f9722a3daafe3b4186f6b6457e060405160405180910390a35050565b5f33905090565b5f5ffd5b5f819050919050565b610d3281610d20565b8114610d3c575f5ffd5b50565b5f81359050610d4d81610d29565b92915050565b5f73ffffffffffffffffffffffffffffffffffffffff82169050919050565b5f610d7c82610d53565b9050919050565b610d8c81610d72565b8114610d96575f5ffd5b50565b5f81359050610da781610d83565b92915050565b5f819050919050565b610dbf81610dad565b8114610dc9575f5ffd5b50565b5f81359050610dda81610db6565b92915050565b5f5f5f5f5f60a08688031215610df957610df8610d1c565b5b5f610e0688828901610d3f565b9550506020610e1788828901610d99565b9450506040610e2888828901610d99565b9350506060610e3988828901610d3f565b9250506080610e4a88828901610dcc565b9150509295509295909350565b5f5f60408385031215610e6d57610e6c610d1c565b5b5f610e7a85828601610d99565b9250506020610e8b85828601610d3f565b9150509250929050565b610e9e81610d20565b82525050565b5f602082019050610eb75f830184610e95565b92915050565b5f60208284031215610ed257610ed1610d1c565b5b5f610edf84828501610d99565b91505092915050565b5f81519050919050565b5f82825260208201905092915050565b5f819050602082019050919050565b610f1a81610d20565b82525050565b5f610f2b8383610f11565b60208301905092915050565b5f602082019050919050565b5f610f4d82610ee8565b610f578185610ef2565b9350610f6283610f02565b805f5b83811015610f92578151610f798882610f20565b9750610f8483610f37565b925050600181019050610f65565b5085935050505092915050565b5f6020820190508181035f830152610fb78184610f43565b905092915050565b5f8115159050919050565b610fd381610fbf565b82525050565b5f602082019050610fec5f830184610fca565b92915050565b610ffb81610d72565b82525050565b5f6020820190506110145f830184610ff2565b92915050565b5f6020828403121561102f5761102e610d1c565b5b5f61103c84828501610d3f565b91505092915050565b61104e81610dad565b82525050565b5f60c0820190506110675f830189610ff2565b6110746020830188610ff2565b6110816040830187610e95565b61108e6060830186611045565b61109b6080830185611045565b6110a860a0830184610fca565b979650505050505050565b5f5f604083850312156110c9576110c8610d1c565b5b5f6110d685828601610d3f565b92505060206110e785828601610dcc565b9150509250929050565b5f5f6040838503121561110757611106610d1c565b5b5f61111485828601610d99565b925050602061112585828601610dcc565b9150509250929050565b5f6040820190506111425f830185610e95565b61114f6020830184611045565b9392505050565b5f6020820190506111695f830184611045565b9291505056fea2646970667358221220a5d8ba8f04bbfd35a131bf52fedf7fbc9e6d126e1dc0b8b8cce37e4cda80259364736f6c63430008230033","linkReferences":{}},"methodIdentifiers":{"activeSubs(address,bytes32)":"054a2ba1","cancelSubscription(bytes32)":"d21f1ffc","createSubscription(bytes32,address,address,bytes32,uint256)":"04bfb5f2","getUserSubscriptions(address)":"2e6ca588","isSubscribed(address,bytes32)":"80eea1ee","owner()":"8da5cb5b","renewSubscription(bytes32,uint256)":"b796d209","renounceOwnership()":"715018a6","router()":"f887ea40","setRouter(address)":"c0d78655","subscriptions(bytes32)":"94259c6c","transferOwnership(address)":"f2fde38b","userSubscriptionIds(address,uint256)":"f9cbd251"},"id":15}